:0D0E23003F065B4F666D7D077F6F40080046
:0A0E3000080A00000A00000000009C
:100C0F00120E16120C99AA06C3EA6480948050053E
:100C1F00750A0A8014AE08AF097C037DE8120AEA50
:100C2F008F0AE50A7003750A0CAE08AF097C037DC5
:100C3F00E8120AEAAA04AB057C007D64AF03AE029A
:100C4F00120AEA8F0B7C007D64AF03AE02120AEA30
:100C5F00AA04AB057C007D0AAF03AE02120AEA8F2D
:100C6F000C750D0BAE02AF037C007D0A120AEA8DE4
:100C7F000EE4F513E513C3940A50857B007A0079CF
:0A0C8F000A7D05120D44051380EAEA
:080D44008B148A1589168D1726
:100D4C00E4F5A05390F8F518E518C395175027ABA8
:100D5C0014AA15A916851882758300120ABD900E67
:100D6C002393F5A0120E44E51864076009E4F5A07E
:060D7C000590051880D26D
:010D8200224E
:060E440000000000002286
:070DA700120DC77F017E0061
:100DAE00EF4E60147DC87C00ED1D70011CED4C7083
:080DBE00F7EF1F70EB1E80E847
:010DC600220A
:100DC700C2B37F677E00EF1F70011EEF4E70F7D230
:0E0DD700B37E007F04EF1F70011EEF4E70F719
:010DE50022EB
:100D8300C2B30FBF0000D2B30FBF00000FBF0000FC
:100D9300A2B392007E007F08EF1F70011EEF4E701A
:030DA300F7A200B4
:010DA600222A
:100DE600E4FD7C01120D83E433FFC43333335480B6
:0C0DF600FEEDC3134EFD0CBC09EAAF0576
:010E020022CD
:100CFC007E01EF139200EFC313FF30001BC2B30B46
:100D0C00BB00000BBB0000D2B37A007B08EB1B705E
:100D1C00011AEB4A70F7801BC2B37A007B08EB1BFD
:100D2C0070011AEB4A70F7D2B30BBB00010A0BBB74
:070D3C0000010A0EBE09BB15
:010D4300228D
:0D0E1600120DA77FCC120CFC7F44020CFCD7
:100C9900120DA77FCC120CFC7FBE120CFC120DE6C4
:100CA900AB07120DE67508008F09E509750900F50E
:100CB90008AF03EF4209AC08AD09EC120A03E4FBE3
:100CC900FA7980783D1208F88F178E168D158C14D5
:100CD900E4FFFE7D207C41AB17AA16A915A81412C2
:100CE90008F8E4FBFAF9783F120807120A3C8E0863
:020CF9008F0961
:010CFB0022D6
:100E0300120DA77F33120CFC120DE68F19120DE69B
:020E13008F1A34
:010E150022BA
:080E3B007F0A7E3CDEFEDFFAB7
:010E4300228C
:10080000020AA8E86480F8E933E83360110460F074
:10081000ED33EC337009E8FCE9FDEAFEEBFF22045E
:1008200060DED3EB9FEA9EE99DE8C2E78CF0C2F759
:1008300095F0400CE8CCF8E9CDF9EACEFAEBCFFB25
:10084000120A7385D0F05804700320D5B3E8047001
:10085000075002B2D5020AB292D5EC0460F7E4CC9C
:10086000C0E0C398F8603B94186008400DD0E0FBEE
:10087000020A8AE4FBFAC9FC8028E830E406E4C9ED
:10088000FBE4CAFCE830E305E4C9CACBFCE8540742
:100890006010F8C3E913F9EA13FAEB13FBEC13FC4D
:1008A000D8F130F52FC3E49CFCEF9BFFEE9AFEEDF0
:1008B00099FDD0E0FBEF4E4D4C701222DB03020A93
:1008C000AFEC2CFCEF33FFEE33FEED33FDED30E704
:1008D000EB020A8AEF2BFFEE3AFEED39FDD0E0FB8A
:1008E00050130BBB0003020AB2ED13FDEE13FEEF33
:0808F00013FFEC13FC020A8A5D
:1008F800EC4D6011E8497017ED33EC3304600DE4FA
:10090800FCFFFEFD22E933E8330470F8020AA8125E
:100918000A7358046009E4CC24815006285009025F
:100928000AB2284003020AAFC0E0EB4A7044B9801B
:1009380006D0E0FB020A9EEF4E701CBD8008EBFF5C
:10094800EAFEE9FD80EBE98DF0A4FEE5F00209E19D
:10095800E9CDF9EAFEEBFFEF89F0A4FCE5F0CE89DA
:10096800F0A42EFFE435F0CD89F0A42DFEE435F097
:100978008067EF4E7005BD80D780C3EF8BF0A4ACC5
:10098800F0EE8BF0A42CFCE435F0F8EF8AF0A42C00
:10099800E5F038FCE433CB8DF0A42CFCE5F03BF813
:1009A800EE8AF0A42CFCE5F038F8E433CF89F0A403
:1009B8002CFCE5F038CF3400CE89F0A42FFFE5F009
:1009C8003EFEE433C98DF0A42EFEE5F039CD8AF061
:1009D800A42FFFE5F03EFEE43DFD33D0E0FB5007D9
:1009E8000BBB000F020AB2EC2CFCEF33FFEE33FE18
:0609F800ED33FD020A8A46
:1009FE0075F020800E75F010800575F0087D007E74
:100A0E00007F003392D530D503120B20EC3340100B
:100A1E00EF33FFEE33FEED33FDEC33FCD5F0ED227C
:0E0A2E00E5F0247EA2D513CC92E7CDCEFF22B8
:100A3C00EDD2E7CD33EC3392D524814006E4FFFEB2
:100A4C00FDFC22FCE4CFCECDCC24E0501174FF8011
:100A5C00EDC3CC13CCCD13CDCE13CECF13CF0470AE
:070A6C00F030D5DE020B2083
:100A7300E9D2E7C933E833F892D5EDD2E7CD33ECC9
:070A830033FC5002B2D52242
:100A8A00EC30E7100FBF000C0EBE00080DBD0004CD
:100A9A000BEB6014A2D5EB13FCED92E7FD2274FF79
:100AAA00FCFDFEFF22E480F8A2D574FF13FC7D80D2
:030ABA00E480EFE6
:03000000020B836D
:0C0B8300787FE4F6D8FD758120020BCAD3
:100ABD00BB010CE58229F582E5833AF583E02250EE
:100ACD0006E92582F8E622BBFE06E92582F8E22238
:0D0ADD00E58229F582E5833AF583E4932252
:100AEA00C2D5EC30E709B2D5E4C39DFDE49CFCEE27
:100AFA0030E715B2D5E4C39FFFE49EFE120B2EC366
:100B0A00E49DFDE49CFC8003120B2E30D507C3E460
:060B1A009FFFE49EFE2295
:0E0B2000C3E49FFFE49EFEE49DFDE49CFC22E6
:100B8F00020C0FE493A3F8E493A34003F68001F261
:100B9F0008DFF48029E493A3F85407240CC8C33367
:100BAF00C4540F4420C8834004F456800146F6DF36
:100BBF00E4800B0102040810204080900E30E47E88
:100BCF00019360BCA3FF543F30E509541FFEE4932B
:100BDF00A360010ECF54C025E060A840B8E493A3F2
:100BEF00FAE493A3F8E493A3C8C582C8CAC583CA1D
:100BFF00F0A3C8C582C8CAC583CADFE9DEE780BED5
:010E3A0000B7
:100B2E00BC000BBE0029EF8DF084FFADF022E4CCAB
:100B3E00F875F008EF2FFFEE33FEEC33FCEE9DEC74
:100B4E00984005FCEE9DFE0FD5F0E9E4CEFD22EDBA
:100B5E00F8F5F0EE8420D21CFEADF075F008EF2F04
:100B6E00FFED33FD4007985006D5F0F222C398FDF5
:050B7E000FD5F0EA2292
:00000001FF
