:0300000002029F5A
:0C029F00787FE4F6D8FD7581580202E675
:10052200FEFDFBF7F88CFC0CF88CFC0CFC0C553037
:10053200343234303431202020202020202020204A
:1005420020200020202020202020202020202020C9
:0605520020202020200003
:100454000E21F88CF95CFA15FA68FB05FB90FC0C8C
:1004640008500001020304050607103E3F065B4FD7
:10047400666D7D077F6F777C395E79710B2FFF7F07
:100484003F1F8FC7E3F1F8FCFE013C00013D000172
:070494003B00015800C1000C
:10032B00780F7C007D007BFF7A0579227E007F04AD
:10033B001200EE750EFFE4F513740F2513F8E6F5B6
:10034B0080E58054F0F51464F060337F147E001266
:10035B0005AFE4FD740F2DF8E6540F75F010A4FFF4
:10036B00E514B50715E4B5F011E51325E025E02DEF
:10037B00F50EE58054F0FFBFF0F80DBD04D6051364
:0B038B00E513C3940440B2AF0E7E00E7
:010396002244
:1005AF00E4FDFCC3ED9FEE6480F8EC648098501579
:1005BF00E4FBFA0BBB00010AEB647A4A70F50DBD40
:0505CF0000010C80DEBC
:0105D4002204
:10017C00E4F508F509120641E4F5A012032B8E0CE8
:10018C008F0DE4F53AD2AFC2ABD2A875A8887589A9
:10019C0011758DD8758BF0758C3C758AB0C28EE557
:1001AC000D450C702C1205FB7BFF7A05793075120E
:1001BC00007513647F801205587BFF7A05793075C2
:1001CC0012007513647FC01205587F047E00120460
:1001DC00DFE50D6401450C700A1205FB7F017E0002
:1001EC001204DFE50D6402450C7047E53A640160CA
:1001FC004175A883D28CE4F590E53D75F00A1201A7
:10020C0014243E12058F759001E53D1205847590FE
:10021C000275A040120593759003E53B75F00A1228
:10022C000114243E12058F759004E53B12058402DF
:10023C0001EFE50D6403450C6003020187E53A64A8
:10024C0001700302018775A883E4F50AF50B7BFFA7
:10025C007A0579301206ADC3E50B9FE50A9E50D2A4
:10026C00E53A640160CC7BFF7A057930850B127F0F
:10027C00C01203977BFF7A057930850B127F8012B1
:10028C0003977FF47E011205D5050BE50B70BF05B6
:03029C000A80BB1A
:10068000E4FDFCC3ED9FEE6480F8EC6480985007B5
:070690000DBD00010C80EC20
:010697002240
:1005D500E4FDFCC3ED9FEE6480F8EC648098501553
:1005E500E4FBFA0BBB00010AEB647A4A70F50DBD1A
:0505F50000010C80DE96
:0105FA0022DE
:10069800743E2FF8E6F5A074502DF8E6F5907F012A
:0506A8007E000205AF19
:1005840075F00A120114AFF0743E2FF8E6F5A07F5F
:03059400327E00B4
:10059700E4FDFCC3ED9FEE6480F8EC64809850079F
:0705A7000DBD00010C80EC0A
:0105AE00222A
:100641007F057E001205D57F3F1206637F0E1206DD
:10065100637F011206637F027E001205D57F80024F
:0206610006632E
:1005FB001206417BFF7A057945E4F512F5137F80EE
:10060B001205587BFF7A057945E4F512F5137FC087
:03061B000205587D
:06061E0014F9120136FF81
:100624008FA0D290C291D292E4FFFE0FBF00010EC0
:0C063400EF64284E70F5D290C291C29283
:010640002297
:100663008FA0C290C291D292E4FFFE0FBF00010E91
:0C067300EF64284E70F5C290C291C29254
:01067F002258
:100558008B0F8A108911120663AB0FAA10A911120A
:10056800013660170511E5117002051012061EE428
:0C057800F5A0AF13AE121205D580DE22F4
:060397008B0F8A10891192
:10039D008B138A148915120663AF12EF3395E0FEA5
:1003AD00C374149FFFE49EFEEF2511F511EE351079
:1003BD00F510AB0FAA10A911120136600D0511E54C
:1003CD00117002051012061E80E8E4FDC374149529
:1003DD0012C36480F8ED6480985019AB13AA14A968
:1003ED0015EDFF3395E08F82F58312014FFF120655
:0403FD00240D80D873
:0104010022D8
:03000300020402F2
:10040200C0E0C083C082C0D075D000C000C002C0AE
:0904120003C004C005C006C007C8
:10041B00900000AF82742F2FF8E6F5A07F647E006A
:10042B001205AFA3E582640B458370E775A8807551
:02043B003A0184
:10043D00D007D006D005D004D003D002D000D0D044
:07044D00D082D083D0E03221
:03000B0002049C50
:10049C00C0E0C0D0758C3C758AB00558E558B414D2
:1004AC002D755800053BD3E53B648094BB401F750C
:1004BC003B00053DD3E53D648094BB4011753D0088
:1004CC00053CD3E53C648094974003753C00D0D048
:0304DC00D0E0323B
:03001B000206C218
:0E06C200C0E0E54EF58D854F8BB2B4D0E0322E
:0404DF008E0E8F0FDF
:1004E300D2ABE4FBFAC3EB950FE50E6480F8EA6444
:1004F3008098502890052EE493F54E740193F54FA0
:10050300D28E7FA07E0F120597C28E1205977F00B1
:0E0513007E051205970BBB00010A80C9C28E3F
:0105210022B7
:1002AB0002017CE493A3F8E493A34003F68001F2EC
:1002BB0008DFF48029E493A3F85407240CC8C33354
:1002CB00C4540F4420C8834004F456800146F6DF23
:1002DB00E4800B0102040810204080900454E47E5B
:1002EB00019360BCA3FF543F30E509541FFEE49318
:1002FB00A360010ECF54C025E060A840B8E493A3DF
:10030B00FAE493A3F8E493A3C8C582C8CAC583CA09
:10031B00F0A3C8C582C8CAC583CADFE9DEE780BEC1
:01049B000060
:10001E00E709F608DFFA8046E709F208DFFA803EC4
:10002E0088828C83E709F0A3DFFA8032E309F608B1
:10003E00DFFA8078E309F208DFFA807088828C8319
:10004E00E309F0A3DFFA806489828A83E0A3F608CD
:10005E00DFFA805889828A83E0A3F208DFFA804CA7
:10006E0080D280FA80C680D4806980F2803380107E
:10007E0080A680EA809A80A880DA80E280CA8033E7
:10008E0089828A83ECFAE493A3C8C582C8CCC5835F
:10009E00CCF0A3C8C582C8CCC583CCDFE9DEE7802F
:1000AE000D89828A83E493A3F608DFF9ECFAA9F0AE
:1000BE00EDFB2289828A83ECFAE0A3C8C582C8CC04
:1000CE00C583CCF0A3C8C582C8CCC583CCDFEADE1D
:1000DE00E880DB89828A83E493A3F208DFF980CC7F
:1000EE0088F0EF60010E4E60C388F0ED2402B40478
:1000FE000050B9F582EB2402B4040050AF2323451F
:06010E00822390006E73D5
:10011400C2D530F707B2D563F0FF05F030E70CB273
:10012400D5F4048463F0FF05F080018430D502F433
:020134000422A3
:10013600BB010689828A83E0225002E722BBFE02C7
:09014600E32289828A83E49322FA
:10014F00BB010CE58229F582E5833AF583E0225065
:10015F0006E92582F8E622BBFE06E92582F8E222AF
:0D016F00E58229F582E5833AF583E49322C9
:1006AD00E4FFFE120136600C0FEF70010E09E970C8
:0506BD00F20A80EF22AB
:00000001FF
