:030000000206A055
:0C06A000787FE4F6D8FD75816D0206E756
:10072C00FEFDFBF7F88CFC0CF88CFC0CFC0C574514
:10073C004C434F4D4520414C41524D00434C4F438F
:10074C004B2053494D554C4154494F4E0072696EE4
:10075C006720736F756E64002020202020202020DD
:10076C0020202020202020202020005345542054DD
:10077C00494D450043555252454E542054494D4520
:10078C000053455420434C4F434B005530343234C6
:10079C003031390055303432343034310043524525
:0607AC0041544F525300BE
:10088A0002660000026C00000A3E3F065B4F666D7E
:10089A007D077F6F0B31FF7F3F1F8FC7E3F1F8FCA6
:1008AA00FE02480000024A0000023C000002680002
:1008BA0000026A0000022F0000C1000E21F88CF924
:1008CA005CFA15FA68FB05FB90FC0C085E00010255
:1008DA000304050607104C3F065B4F666D7D077FD4
:0708EA006F777C395E797124
:1007B20078197C007D007BFF7A07792C7E007F040C
:1007C2001203517518FFE4F51D7419251DF8E6F59D
:1007D20080E58054F0F51E64F060337F147E0012D1
:1007E2000A59E4FD74192DF8E6540F75F010A4FFB0
:1007F200E51EB50715E4B5F011E51D25E025E02D50
:10080200F518E58054F0FFBFF0F80DBD04D6051DC4
:0B081200E51DC3940440B2AF187E0047
:01081D0022B8
:100A5900E4FDFCC3ED9FEE6480F8EC6480985015CA
:100A6900E4FBFA0BBB00010AEB647A4A70F50DBD91
:050A790000010C80DE0D
:010A7E002255
:1005D200D2AFD2A9D2A875A883758901758C3C7552
:1005E2008AB0D28CE53D453C701BE549B56916E5FC
:1005F20048B56811E54BB56B0CE54AB56A07752F2E
:100602000075300122E56D6401456C700302069F9E
:10061200E4F590AE48AF49FC7D0A1203A2743E2F66
:10062200F8E6F5A07F327E00120A41759001AE48CD
:10063200AF497C007D0A1203A2743E2DF8E6F5A0B4
:100642007F327E00120A41AE3CAF3D7C007D021239
:1006520003A2ED4C700C75900275A0407F32FE1221
:100662000A41759003AE4AAF4B7C007D0A1203A289
:10067200743E2FF8E6F5A07F327E00120A41759093
:1006820004AE4AAF4B7C007D0A1203A2743E2DF8E1
:0E069200E6F5A07F327E00120A410205E62244
:030003000208F2FE
:1008F200C0E0C083C082C0D075D000C000C002C0BA
:0909020003C004C005C006C007D3
:10090B00900000AF8274312FF8E6F5A07F647E0073
:10091B00120A59A3E582640B458370E7756C007569
:05092B006D0175A880BC
:10093000D007D006D005D004D003D002D000D0D04C
:07094000D082D083D0E03229
:100A1B00E4F590743E250FF8E6F5A07F647E001296
:100A2B000A41759001743E2511F8E6F5A0120A41B2
:060A3B0075900275A04059
:100A4100E4FDFCC3ED9FEE6480F8EC6480985007F0
:070A51000DBD00010C80EC5B
:010A5800227B
:100A7F00E4FDFCC3ED9FEE6480F8EC6480985015A4
:100A8F00E4FBFA0BBB00010AEB647A4A70F50DBD6B
:050A9F0000010C80DEE7
:010AA400222F
:04001E008E0C8F0DA8
:10002200E4F516F517D2AFD2A875A880758901E458
:10003200F59075A0807F64FE120A410517E51770DE
:10004200020516D39430E51664809482400F12099B
:100052009374D02517F51774FD3516F516759002B1
:1000620075A0401207B28E0E8F0FC3E50F9403E501
:100072000E6480948040117F647E00120A4105174D
:10008200E51770AB051680A7E4F590743E250FF8CE
:10009200E6F5A07F647E00120A4175900175A0808A
:1000A200120A4175900275A04074022517F517E4F3
:1000B2003516F516D3E5179430E516648094824020
:1000C2000F12099374D02517F51774FD3516F5161E
:1000D2001207B28E108F11E50F6402450E700FC326
:1000E200E5119404E510648094805002802CC3E5ED
:1000F2000F9402E50E64809480500DC3E511940ABA
:10010200E5106480948040127F647E00120A4105EB
:1001120017E5177002051602008A120A1B75900372
:1001220075A08074032517F517E43516F516D3E587
:10013200179430E51664809482400F12099374D0AC
:100142002517F51774FD3516F5161207B28E128FA4
:1001520013C3E5139406E5126480948040117F6412
:100162007E00120A410517E51770AF051680AB1223
:100172000A1B759003743E2513F8E6F5A0120A4196
:1001820075900475A08074042517F517E43516F5EB
:1001920016D3E5179430E51664809482400F120955
:1001A2009374D02517F51774FD3516F5161207B29C
:1001B2008E148F15C3E515940AE51464809480406B
:1001C2000A7F647E00120A41020171120A1B7590B5
:1001D20003743E2513F8E6F5A0120A4175900474E3
:1001E2003E2515F8E6F5A074042517F517E4351633
:1001F200F516D3E5179430E51664809482400F1209
:10020200099374D02517F51774FD3516F5161207E4
:10021200B2C3EF9410EE6480948040127F647E003B
:10022200120A410517E517700205160201CDE50D08
:100232006401450CAE0EAF0F7022FC7D0A120390D2
:10024200E5112FF549E5103EF548AE12AF13120342
:1002520090E5152FF54BE5143EF54A227C007D0A08
:10026200120390E5112FF569E5103EF568AE12AF65
:0E02720013120390E5152FF56BE5143EF56AA7
:01028000225B
:03000B0002081ECA
:10081E00C0E0C0D0758C3C758AB00567E567700284
:10082E00056664144566704FF566F567053DE53D52
:10083E007002053CD3943BE53C64809480403805BF
:10084E004BE54B7002054A753C00753D00D3943B59
:10085E00E54A64809480401F0549E54970020548C9
:10086E00754A00754B00D39417E548648094804018
:0C087E0006754800754900D0D0D0E0326B
:10099300053DE53D7002053CD3943BE53C64809402
:1009A300804035E4F53CF53D054BE54B7002054AC7
:1009B300D3943BE54A64809480401DE4F54AF54BAB
:1009C3000549E54970020548D39417E548648094C6
:0909D300804005E4F548F54922D5
:10042D00E4F508F509F5A0120AA51209DC7BFF7A9F
:10043D00077948E4F510F5117FC01209E9E4F5A03C
:10044D007F017E00120A590509E50970020508D3DE
:10045D009446E50864809480400F1209937430250A
:10046D0009F50974FD3508F5081207B28E0A8F0BD0
:10047D00E4F56CF56DD2AFC2ABD2A875A8887589BD
:10048D0010758DD8758BF0C28EE50B450A701B1259
:10049D000B017BFF7A0779597510007511647F8008
:1004AD001209E97F047E0012094BE50B6401450A30
:1004BD007035120B017A0779801209E01205D212FC
:1004CD000947E4F5A075A889E56D6401456C7009CF
:1004DD00F56CF56D120B01800EE5306401452F7042
:1004ED00C9F52FF53080C3E50B6402450A701E1265
:1004FD000B017BFF7A0779771209E27F017E0012EB
:10050D00001E120947E4F590F5A0120B01E50B64EE
:10051D0006450A701C120B011209DC7BFF7A077964
:10052D0048E4F510F5117FC01209E9E4F5A075A8AE
:10053D0089E50B6403450A7022120B017BFF7A07D4
:10054D00798DE4F510F5117FC01209E97F027E0067
:10055D0012001E120B01E4F590F5A0E50B640545A4
:10056D000A7051120B017BFF7A0779A9751000757E
:10057D0011647F801209E91209477F887E13120BDF
:10058D001D120B017BFF7A077997751000751164A9
:10059D007F801209E97F027E0012094B7BFF7A07EB
:1005AD0079A07510007511647FC01209E97F037E73
:1005BD000012094BE50B6404450A600302044D1259
:0505CD000B0102044DCA
:100B3500744C2FF8E6F5A0745E2DF8E6F5907F016C
:050B45007E00020A59C8
:100B1D00E4FDFCC3ED9FEE6480F8EC648098500713
:070B2D000DBD00010C80EC7E
:010B3400229E
:100AA5007F057E00120A7F7F3F120AE47F0E120A3D
:100AB500E47F01120AE47F027E00120A7F7F800232
:020AC5000AE441
:100B0100120AA57BFF7A0779641209E27BFF7A0753
:0C0B11007964E4F510F5117FC00209E9D9
:100AC7008FA0D290C291D292E4FFFE0FBF00010E19
:0C0AD700EF64284E70F5D290C291C292DC
:010AE30022F0
:100AE4008FA0C290C291D292E4FFFE0FBF00010E0C
:0C0AF400EF64284E70F5C290C291C292CF
:010B000022D2
:0D09DC007A07793A7BFFE4F510F5117F8072
:1009E9008B0D8A0E890F120AE4AB0DAA0EA90F12FC
:1009F9000377601D050FE50F7002050E14F9120348
:100A090077FF120AC7E4F5A0AF11AE10120A7F8072
:020A1900D822E1
:03001B00020B4A8B
:0E0B4A00C0E0E55CF58D855D8BB2B4D0E03285
:040947007F017E00AE
:04094B008E0C8F0D72
:10094F00D2ABE4FBFAC3EB950DE50C6480F8EA64D7
:10095F0080985028900738E493F55C740193F55D07
:10096F00D28E7FA07E0F120B1DC28E120B1D7F0029
:10097F007E05120B1D0BBB00010A80C9C28E75A824
:03098F0089C2AB6F
:010992002242
:1006AC0002042DE493A3F8E493A34003F68001F233
:1006BC0008DFF48029E493A3F85407240CC8C3334F
:1006CC00C4540F4420C8834004F456800146F6DF1E
:1006DC00E4800B010204081020408090088AE47E1C
:1006EC00019360BCA3FF543F30E509541FFEE49313
:1006FC00A360010ECF54C025E060A840B8E493A3DA
:10070C00FAE493A3F8E493A3C8C582C8CAC583CA04
:10071C00F0A3C8C582C8CAC583CADFE9DEE780BEBC
:0108F1000006
:10028100E709F608DFFA8046E709F208DFFA803E5F
:1002910088828C83E709F0A3DFFA8032E309F6084C
:1002A100DFFA8078E309F208DFFA807088828C83B4
:1002B100E309F0A3DFFA806489828A83E0A3F60868
:1002C100DFFA805889828A83E0A3F208DFFA804C42
:1002D10080D280FA80C680D4806980F28033801019
:1002E10080A680EA809A80A880DA80E280CA803382
:1002F10089828A83ECFAE493A3C8C582C8CCC583FA
:10030100CCF0A3C8C582C8CCC583CCDFE9DEE780C9
:100311000D89828A83E493A3F608DFF9ECFAA9F048
:10032100EDFB2289828A83ECFAE0A3C8C582C8CC9E
:10033100C583CCF0A3C8C582C8CCC583CCDFEADEB7
:10034100E880DB89828A83E493A3F208DFF980CC19
:1003510088F0EF60010E4E60C388F0ED2402B40412
:100361000050B9F582EB2402B4040050AF232345B9
:0603710082239002D1730B
:10037700BB010689828A83E0225002E722BBFE0284
:09038700E32289828A83E49322B7
:10039000EF8DF0A4A8F0CF8CF0A428CE8DF0A42E81
:0203A000FE223B
:1003A200C2D5EC30E709B2D5E4C39DFDE49CFCEE76
:1003B20030E715B2D5E4C39FFFE49EFE1203D8C313
:1003C200E49DFDE49CFC80031203D830D507C3E40E
:0603D2009FFFE49EFE22E5
:1003D800BC000BBE0029EF8DF084FFADF022E4CC09
:1003E800F875F008EF2FFFEE33FEEC33FCEE9DECD2
:1003F800984005FCEE9DFE0FD5F0E9E4CEFD22ED18
:10040800F8F5F0EE8420D21CFEADF075F008EF2F61
:10041800FFED33FD4007985006D5F0F222C398FD52
:050428000FD5F0EA22EF
:00000001FF
