:0A096A003F065B4F666D7D077F6F4F
:05097A00030E00000067
:1008CB007508FEC2950508E508B4FF23120907E475
:1008DB00F508EF75F06484F50EEF75F06484AFF0F6
:1008EB00EF75F00A84F50FEF75F00A8485F0107B35
:0C08FB00007A00790E7D0312088C80C981
:08088C008B098A0A890B8D0C0F
:10089400E4F5A05390F8F50DE50DC3950C5027AB86
:1008A40009AA0AA90B850D8275830012093D9009D6
:1008B4006A93F5A0120974E50D64076009E4F5A0D4
:0608C4000590050D80D235
:0108CA00220B
:060974000000000000225B
:10090700E4FFFED294C2960000C2930000D2930087
:1009170000C2930000D2930000C2930000EE25E0CE
:10092700FE3094010ED2930000C29300000FBF085F
:05093700ECD296AF06B2
:01093C002298
:03000000020800F3
:0C080000787FE4F6D8FD758110020847EF
:10093D00BB010CE58229F582E5833AF583E022506F
:10094D0006E92582F8E622BBFE06E92582F8E222B9
:0D095D00E58229F582E5833AF583E49322D3
:10080C000208CBE493A3F8E493A34003F68001F22F
:10081C0008DFF48029E493A3F85407240CC8C333ED
:10082C00C4540F4420C8834004F456800146F6DFBC
:10083C00E4800B010204081020408090097AE47EC9
:10084C00019360BCA3FF543F30E509541FFEE493B1
:10085C00A360010ECF54C025E060A840B8E493A378
:10086C00FAE493A3F8E493A3C8C582C8CAC583CAA3
:10087C00F0A3C8C582C8CAC583CADFE9DEE780BE5B
:01097F000077
:00000001FF
